:100000000C9472000C947E000C947E000C947E0084
:100010000C947E000C947E000C947E000C947E0068
:100020000C947E000C947E000C947E000C947E0058
:100030000C947E000C947E000C947E000C947E0048
:100040000C947E000C947E000C947E000C947E0038
:100050000C947E000C947E000C947E000C947E0028
:100060000C947E000C947E000C947E000C947E0018
:100070000C947E000C947E000C947E000C947E0008
:100080000C947E000C947E000C947E000C947E00F8
:100090000C947E000C947E000C947E000C947E00E8
:1000A0000C947E000C947E000C947E000C947E00D8
:1000B0000C947E000C947E000C947E000C947E00C8
:1000C0000C947E000C947E000C947E000C947E00B8
:1000D0000C947E000C947E000C947E000C947E00A8
:1000E0000C947E0011241FBECFEFD1E2DEBFCDBF46
:1000F00000E00CBF0E94B9000C94BE000C940000FC
:1001000081B18F6081B982B1807F82B9EAE0F1E08C
:10011000808188618083EBE0F1E080818861808369
:1001200008950C94800092B1907F8F70892B82B9D2
:10013000089586E00C94930089E00C94930085E088
:100140000C9493008AE00C94930084E00C94930048
:1001500082E00C94930081E00C94930088E00C946E
:10016000930080E00C949300F8940E9480007894AF
:1001700008950E94B4000E949900FDCFF894FFCF2B
:00000001FF
